:100000000C94A7440C94D8440C94D8440C94D84431
:100010000C94D8440C94D8440C94D8440C94D844F0
:100020000C94D8440C94D8440C94D8440C94D844E0
:100030000C94D8440D94A3A10C94D8440C94D844A7
:100040000C94D8440D947B200C94D8440C94D84440
:100050000C94D8440C94D8440D94973A0D94A89AD3
:100060000C94D8440C9405500C94D8440C94D84467
:100070000C94D8440C94D8440C94D8440C94D84490
:100080000C94D8440C94D8440C94D8440C94D84480
:100090000C94D8440C94D8440C94D8440C94D84470
:1000A0000C94D8440C94D8440C94D8440C94D84460
:1000B0000C94D8440C94D8440C94D8440C94D84450
:1000C0000C94D8440C94D8440C94D8440C94D84440
:1000D0000C94D8440C94D8440C94D8440C94D84430
:1000E0000C94D84486013C0130012C013801A60152
:1000F000B4014E0112019A01620176014C01940192
:1001000082014601680158018C0126011601960101
:100110007A0136012A011E014A0134019001980139
:100120004201280122012A016A01720124015E01B3
:1001300050017E01740148019E0154014001AC014F
:10014000600132018A01440180019E01B6011A0159
:100150007C01084AD73B3BCE016E84BCBFFDC12F5A
:100160003D6C74319ABD56833DDA3D00C77F11BEA8
:10017000D9E4BB4C3E916BAAAABE000000803F05AB
:10018000A84CCDB2D44EB93836A9020C50B99186DC
:1001900088083CA6AAAA2ABE000000803F07634246
:1001A00036B79BD8A71A39685618AEBAAB558C1D0E
:1001B0003CB7CC5763BD6DEDFD753EF6177231BF90
:1001C000000000803F08000000BE922449123EABB0
:1001D000AAAA2ABECDCCCC4C3E00000080BEABAA61
:1001E000AAAA3E00000000BF000000803F000000FF
:1001F0000000084178D3BB4387D1133D190E3CC39F
:10020000BD4282AD2B3E68EC8276BED98FE1A93E1D
:100210004C80EFFFBE01C4FF7F3F000000000000E4
:100220000D9410820D94643B0D9434660D94EE9BF6
:100230000D94F33E0D94D39C0D9494620D94119CF7
:100240000D9458680D94589C0D94769C0D94E99BE0
:100250000D944E9C0D94809C0D941C3B0D94274254
:100260000D940E3B0D94BB9C0D94219C0D94079C0A
:100270000D94363B0D94DB460D94F23A0D9438798B
:100280000D94AD9C0D943F9C0D94C59C0D945669A6
:100290000D949E9C0D94199C0D94EB680D94623BFB
:1002A0000D94A59C0D9495430D94A99C0D94F9660D
:1002B0000D946A690D94B5490D942D420D94A29C3C
:1002C0000D94B79C0D94703B0D943D660D94554074
:1002D0000D9460690D94629C0D9418420D94DC5647
:1002E0000D947C080D946C9C0D94989C0D94D16891
:1002F0000D941D900D94FD9B0D94D79C0D94949C92
:100300000D94C99C0D9427690D94A8590D94E43A55
:100310000D9493800D94C19C0D9484690D94007686
:100320000D942B9C0D944F660D9408690D94F39BCE
:100330000D94359C0D94683B0D940C7E0D94DC9CC3
:100340000D943A5B0D94C8640D94C24B0D94443BDC
:100350000D94CB410D9406960D94B39C0D94739D12
:100360000D944B730D9446660D945E3B0D94CF9C9B
:1003700048617264636F6465642044656661756C8E
:10038000742053657474696E6773204C6F61646583
:10039000640053746F7265642073657474696E676A
:1003A00073207265747269657665640046696C6174
:1003B0006D656E742073657474696E67733A20445A
:1003C000697361626C6564002020204D32303020FA
:1003D000440046696C616D656E7420736574746960
:1003E0006E67733A002020204D323039205300418F
:1003F00075746F2D526574726163743A20533D3089
:1004000020746F2064697361626C652C20312074E4
:100410006F20696E7465727072657420657874728D
:100420007564652D6F6E6C79206D6F7665732061D4
:1004300073207265747261637473206F72207265C9
:10044000636F766572696573002046002020204D39
:100450003230382053005265636F7665723A20530C
:100460003D4578747261206C656E67746820286DF4
:100470006D2920463A537065656420286D6D2F6D97
:100480002900205A002046002020204D32303720FD
:100490005300526574726163743A20533D4C656E2B
:1004A00067746820286D6D2920463A53706565642D
:1004B00020286D6D2F6D29205A3A205A4C69667498
:1004C00020286D6D29002044002049002020204D67
:1004D00033303420500050494420686561746265AF
:1004E000642073657474696E67733A002044002059
:1004F00049002020204D3330312050005049442005
:1005000073657474696E67733A00205A002059004D
:1005100020204D323036205800486F6D65206F66C0
:100520006673657420286D6D293A00204500205AB5
:100530000020590020580020420020540020204D67
:10054000323035205300416476616E6365642076F5
:1005500061726961626C65733A20533D4D696E202A
:10056000666565647261746520286D6D2F73292C32
:1005700020543D4D696E2074726176656C2066650D
:1005800065647261746520286D6D2F73292C20427B
:100590003D6D696E696D756D207365676D656E740F
:1005A0002074696D6520286D73292C20583D6D617C
:1005B00078696D756D205859206A65726B20286DB9
:1005C0006D2F73292C20205A3D6D6178696D756DF2
:1005D000205A206A65726B20286D6D2F73292C209C
:1005E00020453D6D6178696D756D2045206A6572A5
:1005F0006B20286D6D2F73290020540020204D3270
:100600003034205300416363656C65726174696FB7
:100610006E3A20533D616363656C65726174696F06
:100620006E2C20543D726574726163742061636343
:10063000656C65726174696F6E00204500205A0018
:1006400020590020204D3230312058004D6178690A
:100650006D756D20416363656C65726174696F6E61
:1006600020286D6D2F7332293A00204500205A0052
:1006700020590020204D3230332058004D617869D8
:100680006D756D2066656564726174657320286D93
:100690006D2F73293A00204500205A002059002070
:1006A000204D393220580053746570732070657284
:1006B00020756E69743A0053657474696E677320AF
:1006C00053746F7265640020423A0020453A00542A
:1006D0003A005A207368696674206170706C6965AD
:1006E000643A000A005A206C6976652061646A7574
:1006F0007374206F7574206F662072616E67652E4B
:100700002053657474696E6720746F20302E204307
:100710006C69636B20746F20636F6E74696E7565AE
:100720002E005A206C6976652061646A75737420A6
:100730006F7574206F662072616E67652E20536539
:100740007474696E6720746F20300020573A00205F
:10075000453A00543A0022005400496E76616C69B3
:1007600064205420636F64652E00496E76616C6965
:1007700064204D20636F64652E004D32323020536B
:10078000256900203A2000004C414E472053454C3B
:1007900020464F52434544002200205A3A00205937
:1007A0003A0020453A00205A3A0020593A00583A77
:1007B0000020002E0020423A0020453A00543A0022
:1007C0002042403A0020403A00202F003A002054B6
:1007D00000202F0020423A00202F006F6B20543A57
:1007E000002569206D696E2C2025692073656300E2
:1007F000496E76616C6964204D20636F6465004DBD
:1008000065736820626564206C6576656C696E67E7
:10081000206E6F74206163746976652E000A002073
:1008200020000A4D6561737572656420706F696E92
:1008300074733A000A5A20736561726368206865B0
:10084000696768743A20002C004E756D20582C5949
:100850003A2000476F20686F6D652066696E697386
:10086000686564004D65736820626564206C657618
:10087000656C696E67206163746976617465640094
:10088000557073616D706C652066696E697368651B
:100890006400426564206C6576656C696E672063F0
:1008A0006F7272656374696F6E2066696E697368D2
:1008B000656400206D6963726F6E730045786365CF
:1008C000737369766520626564206C6576656C6912
:1008D0006E6720636F7272656374696F6E3A200091
:1008E00042656420636F7272656374696F6E206421
:1008F000617461206E6F742076616C69640A0042D5
:10090000656420636F7272656374696F6E206461E1
:1009100074612076616C69640A0062616279737443
:100920006570206170706C69656400636C65616EF0
:100930002075702066696E697368656420004D4596
:1009400053485F484F4D455F5A5F534541524348B6
:100950003A20004D65736820626564206C65766599
:100960006C696E67207768696C65206C6F6F7020AA
:1009700066696E69736865642E00006D6573682032
:10098000626564206C6576656C696E673A20000A62
:1009900000593A200000583A20003A206E6F207823
:1009A0007920636C616D70696E670A003A2078790E
:1009B00020636C616D7065642E0A00002C206361F9
:1009C0006C6962726174696F6E207A3A20004265C8
:1009D00064206C6576656C696E672C20706F696E3B
:1009E000743A2000005A206A697474657220646148
:1009F00074612066726F6D205A2063616C2E206EC8
:100A00006F742076616C69642E0A005A206A6974DA
:100A100074657220646174612066726F6D205A2063
:100A200063616C2E2076616C69642E0A004E6F2023
:100A3000636C616D70696E6720666F7220666972A3
:100A400073742063616C6962726174696F6E207087
:100A50006F696E742E0A0046697273742063616C4C
:100A60006962726174696F6E20706F696E74206361
:100A70006C616D7065642E0A004732382057300073
:100A80004732382057300054656D70657261747557
:100A900072652063616C6962726174696F6E206453
:100AA0006F6E652E20436F6E74696E756520776971
:100AB0007468207072657373696E6720746865204E
:100AC0006B6E6F622E0000205A2073686966742076
:100AD000286D6D293A0054656D7065726174757288
:100AE000653A2000002F3600537465703A200000EC
:100AF0005A45524F3A20000050494E4441207072EE
:100B00006F62652063616C6962726174696F6E20E7
:100B1000737461727400473238205730000A002025
:100B20005A3A200020593A200020583A20004D32ED
:100B300032302053256900256920686F7572732053
:100B40002569206D696E757465730054494D454F74
:100B500055543A004D3131300046756C6C20525876
:100B600020427566666572004D3239002055706C02
:100B70006F616420696E2070726F677265737300B5
:100B8000466163746F7279205245534554004A752B
:100B90006C202039203230313700436F6D70696C22
:100BA00065643A2000284A657373652C2046525FBD
:100BB00073656E736529004A756C202039203230C8
:100BC00031372030383A32343A3435007374617238
:100BD000740025002020202020200020202020201C
:100BE000200045524153494E4720616C6C2064619E
:100BF000746100466163746F7279205245534554A5
:100C00000022206661696C65643A204275666665FB
:100C1000722066756C6C2100456E717565696E6732
:100C200020746F207468652066726F6E743A20229B
:100C3000002200456E717565696E6720746F2074BF
:100C400068652066726F6E743A2022002220666109
:100C5000696C65643A204275666665722066756CDB
:100C60006C21002200FFFFFF0000A0400000A04018
:100C70000000004000007A43333354439AD9514373
:100C800000000000CDCC0CC09A99193E00007A43B8
:100C9000000052430000524300000000CDCC0CC0C5
:100CA0009A99193E6563686F3A004572726F723A9D
:100CB0000000002110422063308440A550C660E748
:100CC00070088129914AA16BB18CC1ADD1CEE1EF01
:100CD000F13112100273325222B5529442F772D699
:100CE00062399318837BB35AA3BDD39CC3FFF3DE51
:100CF000E36224433420040114E664C774A44485E9
:100D0000546AA54BB528850995EEE5CFF5ACC58DA0
:100D1000D55336722611163006D776F6669556B438
:100D2000465BB77AA719973887DFF7FEE79DD7BCF0
:100D3000C7C448E5588668A7784008611802282388
:100D400038CCC9EDD98EE9AFF9488969990AA92B40
:100D5000B9F55AD44AB77A966A711A500A333A12D8
:100D60002AFDDBDCCBBFFB9EEB799B588B3BBB1A90
:100D7000ABA66C877CE44CC55C222C033C600C4128
:100D80001CAEED8FFDECCDCDDD2AAD0BBD688D49E0
:100D90009D977EB66ED55EF44E133E322E511E7078
:100DA0000E9FFFBEEFDDDFFCCF1BBF3AAF599F7830
:100DB0008F8891A981CAB1EBA10CD12DC14EF16FE1
:100DC000E18010A100C230E3200450254046706746
:100DD00060B9839893FBA3DAB33DC31CD37FE35E72
:100DE000F3B1029012F322D2323542145277625696
:100DF00072EAB5CBA5A89589856EF54FE52CD50D82
:100E0000C5E234C324A014810466744764245405E5
:100E100044DBA7FAB79987B8975FE77EF71DC73C11
:100E2000D7D326F2369106B0165766767615463435
:100E3000564CD96DC90EF92FE9C899E9898AB9AB21
:100E4000A94458654806782768C018E1088238A385
:100E5000287DCB5CDB3FEB1EFBF98BD89BBBAB9AB1
:100E6000BB754A545A376A167AF10AD01AB32A92D5
:100E70003A2EFD0FED6CDD4DCDAABD8BADE89DC9C1
:100E80008D267C076C645C454CA23C832CE01CC125
:100E90000C1FEF3EFF5DCF7CDF9BAFBABFD98FF851
:100EA0009F176E367E554E745E932EB23ED10EF075
:100EB0001E7C3C3E5E2B3D3F2F5B5D3B2C2A225C23
:100EC000004D383420582059205A2045004D3234E6
:100ED000004D3233202573006175746F25692E67CC
:100EE000000A002F000A002E0044656C6574696FCB
:100EF0006E206661696C65642C2046696C653A20D9
:100F00000046696C652064656C657465643A002E02
:100F1000002E002E002E004E6F77206672657368DB
:100F20002066696C653A20004E6F7720646F696EA9
:100F3000672066696C653A20002220706F7300227A
:100F400020706172656E743A2200535542524F55BB
:100F500054494E452043414C4C207461726765747E
:100F60003A2200747279696E6720746F2063616C35
:100F70006C207375622D67636F64652066696C65AC
:100F800073207769746820746F6F206D616E7920AB
:100F90006C6576656C732E204D4158206C657665C6
:100FA0006C2069733A005072757361206933204D6B
:100FB0004B32206265726569742E005072757361E0
:100FC000206933204D4B3220676F746F776100507A
:100FD00072757361206933204D4B322070726570D9
:100FE0002E005072757361206933204D4B32207092
:100FF000726F6E74612E00507275736120693320B8
:101000004D4B32206F6B0050727573612069332035
:101010004D4B322072656164792E007A5F6D696E86
:101020003A20007A5F6D61783A20005A204F666658
:1010300073657400795F6D696E3A2000795F6D6148
:10104000783A20004A610054616B0053690053698B
:1010500000416E6F0059657300785F6D696E3A20CC
:1010600000205761746368646F672052657365740C
:1010700000496E666F726D6174696F6E00496E66CD
:101080006F726D61636A65004D6F6E69746F72692E
:101090007A61720053636865726D61746120696E74
:1010A000666F00496E666F726D61636500496E66BA
:1010B0006F2073637265656E0057617274656E2090
:1010C0006175662041626B7565686C756E67207628
:1010D0006F6E2048656174657220756E642042658C
:1010E000642E004F637A656B6977616E6965206E67
:1010F0006120777963686C6F647A656E69652064D6
:1011000079737A79206920706F646B6C61646B69A4
:101110002E004573706572616E646F20656E667235
:1011200069616D69656E746F206465206C61206310
:10113000616D6120792064656C20657874727573C7
:101140006F722E00496E206174746573612064654E
:101150006C207261666672656464616D656E746F41
:101160002064656C6C612074657374696E612065C0
:101170002064656C2070696174746F0043656B61F5
:101180006E69206E61207A63686C61646E75746943
:1011900020747279736B79206120706F646C6F7A40
:1011A0006B792E0057616974696E6720666F7220D3
:1011B0006E6F7A7A6C6520616E642062656420636C
:1011C0006F6F6C696E670057617274652061756638
:1011D00020757365722E2E2E004573706572616ED8
:1011E000646F206F7264656E657300417474656E20
:1011F00064656E646F207574656E7465005761690F
:101200007420666F7220757365722E2E2E004669EB
:101210006C616D656E7420656E746C6164656E00E2
:1012200057796A61632066696C616D656E740053FD
:101230006F6C7461722066696C616D656E746F00AD
:10124000536361726963612066696C616D656E7478
:101250006F0056796A6D6F75742066696C616D6593
:101260006E7400556E6C6F61642066696C616D65AB
:101270006E740046696C616D656E7420617573777C
:10128000657266656E005779737577616D20666962
:101290006C616D656E7400536F6C74616E646F2069
:1012A00066696C616D656E746F0052696C61736321
:1012B0002E2066696C616D656E746F005679736F70
:1012C0007576616D2066696C616D656E7400556E32
:1012D0006C6F6164696E672066696C616D656E74C0
:1012E00000556E6B6E6F776E20636F6D6D616E640F
:1012F0003A2022004665696E65696E7374656C6C90
:10130000756E67004E617374726F696300416A7530
:1013100073746172005265676F6C61004C6164693F
:10132000740054756E65005344204B6172746520DF
:101330005B466C6173684169725D006B61727461D8
:101340002053445B466C73684169725D00534420CE
:1013500063617264205B466C73684169725D00531F
:1013600044204B61727465205B6E6F726D616C5DC1
:10137000006B61727461205344205B6E6F726D610B
:101380006C5D0053442063617264205B6E6F726D0C
:10139000616C5D0054656D702E204B616C2E205B7E
:1013A0004F4E5D00436965706C2E206B616C2E2082
:1013B0005B4F4E5D0043616C2E2074656D702E2076
:1013C0005B4F4E5D0043616C2E2074656D702E2066
:1013D0005B4F4E5D005465706C2E206B616C2E204F
:1013E0005B4F4E5D0054656D702E2063616C2E2046
:1013F0005B4F4E5D0054656D702E204B616C2E204E
:101400005B4F46465D00436965706C2E206B616CD6
:101410002E205B4F46465D0043616C2E2074656D47
:10142000702E205B4F46465D0043616C2E20746534
:101430006D702E205B4F46465D005465706C2E200B
:101440006B616C2E205B4F46465D0054656D702EBF
:101450002063616C2E205B4F46465D0054656D70C5
:101460002E204B616C696272696572756E672066C9
:1014700065727469672E204B6C69636B656E2075AD
:101480006D20776569746572207A75206765686577
:101490006E2E00436965706C6E61206B616C6962D1
:1014A0007261636A61207A616B6F6E637A6F6E61DD
:1014B0002E204B6F6E74796E75756A2070727A7912
:1014C0006369736B69656D0043616C696272616326
:1014D0006F6E2074656D70657261747572612074D1
:1014E00065726D696E6164612E2050726573696FFB
:1014F0006E6172207061726120636F6E74696E75C7
:1015000061722E0054617261747572612074656D30
:101510007065726174757261207465726D696E6157
:1015200074612E204661726520636C69636B207064
:10153000657220636F6E74696E756172652E0054FA
:1015400065706C6F746E69206B616C696272616347
:101550006520646F6B6F6E63656E612E20506F6BDC
:10156000726163756A746520737469736B656D204D
:10157000746C616369746B612E0054656D70657283
:1015800061747572652063616C6962726174696F00
:101590006E2069732066696E69736865642E2043E6
:1015A0006C69636B20746F20636F6E74696E756510
:1015B0002E0054656D70204B616C69622E202020D6
:1015C00020202020202000436965706C2E206B6154
:1015D0006C2E2020202020202020200043616C2E13
:1015E0002074656D702E20202020202020202020B7
:1015F0000043616C2E2074656D702E202020202009
:101600002020202020005465706C2E206B616C2EF1
:10161000202020202020202020200054656D702EC6
:101620002063616C2E2020202020202020202000FC
:1016300054656D706572617475720054656D706586
:101640007261747572610054656D70657261747554
:1016500072610054656D70657261747572610054D9
:1016600065706C6F74610054656D7065726174753E
:10167000726500506F6D6F6300536F706F727465A9
:1016800000506F64706F726100537570706F727488
:1016900000447275636B2061626272656368656E97
:1016A000005A6174727A796D6163206472756B009F
:1016B000446574656E657220696D70726573696FDB
:1016C0006E0041727265737461207374616D706134
:1016D000005A61737461766974207469736B005386
:1016E000746F70207072696E7400474553544F5088
:1016F00050542E2000504152414441004152524525
:10170000535441544F2E0053544F505045442E20B3
:1017100000537465707261746520746F6F2068691E
:1017200067683A2000546F74616C65204472756379
:101730006B7A6569743A00437A61732063616C6BFC
:101740006F77697479203A005469656D706F207401
:101750006F74616C203A0054656D706F2073746112
:101760006D706120746F743A0043656C6B6F7679AD
:1017700020636173203A00546F74616C2070726949
:101780006E742074696D65203A00476573616D74ED
:1017900066696C616D656E743A0046696C616D6571
:1017A0006E74206C61637A6E6965203A0046696CDC
:1017B000616D656E746F20746F74616C3A00466978
:1017C0006C616D656E746F20746F743A0046696C5D
:1017D000616D656E742063656C6B656D203A0054B5
:1017E0006F74616C2066696C616D656E74203A007F
:1017F000447275636B7A6569743A202000437A619C
:1018000073206472756B75203A2020005469656DF1
:10181000706F20646520696D702E3A0054656D709C
:101820006F206469207374616D70613A0043617365
:10183000207469736B75203A2020005072696E74B1
:101840002074696D653A20200046696C616D656E93
:10185000747665726272617563683A0046696C619C
:101860006D656E74203A20200046696C616D656E6E
:10187000746F203A20200046696C616D656E746F4C
:1018800020757361746F3A0046696C616D656E74A2
:10189000203A20200046696C616D656E7420757376
:1018A00065643A20200053746174697374696B65D0
:1018B0006E200053746174797374796B6120200019
:1018C00045737461646973746963612020005374A3
:1018D00061746973746963686500537461746973D2
:1018E00074696B6120200053746174697374696357
:1018F000732020004572726F72202D207374617402
:101900006963206D656D6F7279206861732062650F
:10191000656E206F7665727772697474656E0047C4
:101920006573636877696E6469676B656974005095
:101930007265646B6F73630056656C6F6369646195
:10194000640056656C6F6369746100527963686CFA
:101950006F73740053706565640020536F6674770D
:10196000617265205265736574004D6F6465202057
:101970002020205B6C656973655D004D6F642020DD
:1019800020202020205B63696368795D004D6F64CF
:101990006F2020205B73696C656E63696F5D004D1D
:1019A0006F646F205B73696C656E7A696F736F5DCE
:1019B000004D6F64202020202020205B7469636824
:1019C000795D004D6F646520202020205B73696C79
:1019D000656E745D004D6F6465205B486F686520BF
:1019E0004C656973745D004D6F64205B7720777977
:1019F00064616A6E6F73635D004D6F646F205B722C
:101A0000656E642E706C656E6F5D004D6F64652051
:101A100020202020205B666F7274655D004D6F642E
:101A200020205B7679732E2076796B6F6E5D004D8A
:101A30006F6465205B6869676820706F7765725DA9
:101A400000456E64736368616C74657220537461E1
:101A5000742E00506F6B617A206B72616E636F77CA
:101A60006B6900456E73656E6120746F70652066EA
:101A7000696E616C00537461746F2066696E656392
:101A80006F7273610053746176206B6F6E632E20EA
:101A90007370696E2E0053686F7720656E642073D3
:101AA000746F70730054656D702E2065696E736578
:101AB000747A656E00557374617769632074656D1F
:101AC00070657261747572650045737461626C65EE
:101AD0006365722074656D702E3A00496D706F7386
:101AE00074612074656D7065726174757261004E09
:101AF00061737461767465207465706C6F74753A87
:101B0000005365742074656D7065726174757265DB
:101B10003A0045696E7374656C6C756E67656E002E
:101B2000557374617769656E696100436F6E6669AC
:101B30006775726163696F6E00496D706F73746170
:101B40007A696F6E69004E6173746176656E6900C3
:101B500053657474696E6773005665726472616868
:101B600074756E676665686C657200426C616420AE
:101B7000706F6C61637A656E6961004572726F7235
:101B800020646520636F6E6578696F6E00457272C0
:101B90006F7265206361626C616767696F0043689B
:101BA000796261207A61706F6A656E690057697247
:101BB000696E67206572726F720053656C62737430
:101BC0007465737420737461727420004175746F4E
:101BD000746573742073616C696461004176766921
:101BE00061206175746F746573740053656C662051
:101BF0007465737420737461727420200042697478
:101C00007465207072756566653A00536B6F6E740B
:101C1000726F6C756A203A00436F6E74726F6C61FC
:101C2000203A00566572696669636172653A005AC6
:101C30006B6F6E74726F6C756A7465203A00506CCD
:101C40006561736520636865636B203A0053656C5A
:101C500062737474657374204F4B004175746F74B4
:101C6000657374204F4B0053656C66207465737404
:101C7000204F4B004E6963687420616E6765736323
:101C8000686C6F7373656E004E696520706F646C6D
:101C900061637A6F6E6F202020004E6F206861793B
:101CA00020636F6E6578696F6E2020004E6F6E2026
:101CB000636F6E6E6573736F004E657A61706F6AE5
:101CC000656E6F20202020004E6F7420636F6E6E53
:101CD00065637465640053696C6E696B004D6F7465
:101CE0006F7265004D6F746F720043616C656E7446
:101CF0002E2F5465726D6973746F7200526973632D
:101D0000616C642E2F5465726D6973742E00486582
:101D1000617465722F546865726D6973746F7200B7
:101D20004472656874004B7265636920736965006D
:101D300056656E74696C61646F72206769726100C8
:101D40004769726100546F6369207365005370695D
:101D50006E6E696E67004472656874206E696368B0
:101D600074004E656B726563692073696500566522
:101D70006E74696C61646F72206E6F206769726146
:101D8000004E6F6E2073692067697261004E657442
:101D90006F6369207365004E6F74207370696E6E97
:101DA000696E67004C75656674657274657374005E
:101DB000546573742077656E74796C61746F7261A9
:101DC00000546573742064656C2076656E74696C6C
:101DD00061646F720050726F76612064656C20766A
:101DE000656E74696C61746F7200546573742076EB
:101DF000656E74696C61746F72750046616E2074F3
:101E00006573740053656C62737474657374206DCC
:101E10006973736C756E672E0053656C66746573B9
:101E200074206E69657564616E79004175746F74B4
:101E30006573742066616C6C61646F004175746FCA
:101E4000746573742066616C6C69746F0053656CA3
:101E500066746573742073656C68616C2020005330
:101E6000656C6674657374206661696C65642020B6
:101E7000004C696E6B6572204C7565667465723FC7
:101E8000004C6577792077656E74206E61206479E7
:101E9000737A653F0056656E742E20656E206C6106
:101EA00020697A673F0056656E7420535820737519
:101EB0006C6C277567656C6C6F3F004C657679209C
:101EC00076656E74206E61207472797363653F006D
:101ED0004C65667420686F74656E642066616E3F41
:101EE0000053656C6274657374204665686C657236
:101EF00021004175746F74657374206572726F721E
:101F000021004175746F74657374206E6567617428
:101F100069766F0053656C667465737420657272C0
:101F20006F72202100456E6465206E6963687420BD
:101F3000676574726F662E00546F70652066696EF7
:101F40002E206E6F20746F632E0046696E65632EBF
:101F50002066756F726920706F722E00456E647313
:101F6000746F70206E6F742068697400456E6473BE
:101F70006368616C74657200546F70657320666984
:101F80006E616C0046696E65636F72736120283202
:101F90002900456E6473746F707300546F70652010
:101FA00066696E616C0046696E65636F727361008D
:101FB000456E6473746F7000566F726465726572FB
:101FC000204C7565667465723F0050727A6F646E5E
:101FD000692077656E742E206472756B753F0056AC
:101FE000656E742E20616C206672656E74653F00AC
:101FF00056656E74206469207374616D7061206130
:102000006E742E3F00507265646E69207469736B44
:102010006F76792076656E743F0046726F6E74201D
:102020007072696E742066616E3F005072756566ED
:1020300065205A20416368736520202020004B6F83
:102040006E74726F6C61205A206178697320200071
:10205000436F6E74726F6C2064656C20656A6520D6
:102060005A00566572696669636120617373652001
:102070005A004B6F6E74726F6C61205A20617869E0
:1020800073202000436865636B696E67205A206186
:10209000786973202000507275656665205920416B
:1020A0006368736520202020004B6F6E74726F6C24
:1020B0006120592061786973202000436F6E74722B
:1020C0006F6C2064656C20656A65205900566572E6
:1020D000696669636120617373652059004B6F6E97
:1020E00074726F6C612059206178697320200043FD
:1020F0006865636B696E6720592061786973202079
:1021000000507275656665205820416368736520CC
:10211000202020004B6F6E74726F6C61205820611C
:10212000786973202000436F6E74726F6C20646551
:102130006C20656A6520580056657269666963613E
:1021400020617373652058004B6F6E74726F6C6101
:1021500020582061786973202000436865636B69AB
:102160006E67205820617869732020005072756571
:10217000666520486F74656E64004B6F6E74726F95
:102180006C6120686F74656E64202000436F6E740C
:10219000726F6C20686F74656E642000566572699A
:1021A00066696361207567656C6C6F004B6F6E7458
:1021B000726F6C6120686F74656E642020004368E4
:1021C00065636B696E6720686F74656E64202000BC
:1021D00050727565666520456E64736368616C74E2
:1021E00065722020004B6F6E74726F6C6120656E9B
:1021F0006473746F707300436F6E742E20746F700D
:1022000065732066696E616C005665726966696304
:10221000612066696E65636F727361004B6F6E74E7
:10222000726F6C6120656E6473746F7073004368C5
:1022300065636B696E6720656E6473746F7073009D
:102240005072FE20426564202020202020202000A3
:102250004B6F6E74726F6C61206265642020202069
:102260002000436F6E74726F6C2064652063616D33
:1022700061005665726966696361206C6574746F8C
:10228000004B6F6E74726F6C612062656420202059
:10229000202000436865636B696E67206265642077
:1022A0002020202000416C6C657320726963687483
:1022B0006967202020200057737A7973746B6F2030
:1022C0004F4B20202020202000546F646F20626933
:1022D0006520004E657373756E206572726F72654E
:1022E00000567365204F4B202020202020202020E6
:1022F000202000416C6C20636F7272656374202033
:10230000202020200043616D612F43616C656E7455
:1023100061646F72004C6574746F2F5269736361EE
:102320006C642E00426564202F20486561746572DC
:102330000053656C627374746573742020202020D0
:102340002020004175746F74657374004175746F5B
:10235000746573740053656C667465737420202013
:102360002020202020200057726974696E67207435
:102370006F2066696C653A2000766F6C756D652E0E
:10238000696E6974206661696C6564002053697ABE
:10239000653A2000534420656E746665726E742041
:1023A000004B617274612077796A657461005461D1
:1023B000726A657461207265746972616461005348
:1023C000442072696D6F737361004B617274612098
:1023D00076796A6D75746100436172642072656D0F
:1023E0006F766564005344207072696E74696E671D
:1023F000206279746520006F70656E206661696C7B
:1024000065642C2046696C653A20006F70656E52D9
:102410006F6F74206661696C656400534420656960
:102420006E67657365747A74004B617274612077AE
:102430006C6F7A6F6E61005461726A6574612069B5
:102440006E7365727461646100534420696E7365D4
:1024500072697461004B6172746120766C6F7A6589
:102460006E61004361726420696E736572746564A5
:1024700000534420696E6974206661696C00466986
:102480006C652073656C65637465640046696C6592
:10249000206F70656E65643A20006572726F7220FD
:1024A00077726974696E6720746F2066696C650065
:1024B00053442063617264206F6B0043616E6E6FE2
:1024C0007420656E746572207375626469723A2057
:1024D00000447275636B207765697465726765681F
:1024E000656E00577A6E617769616E696520647206
:1024F000756B75005265616E7564617220696D70EF
:10250000726573696F6E005374616D706120696EDE
:102510002072697072657361004F626E6F766F76BC
:10252000616E69207469736B7500526573756D69AE
:102530006E67207072696E7400447275636B2066FA
:102540006F727467657365747A7400577A6E6F770B
:1025500069656E6965206472756B75005265737587
:102560006D69656E646F20696D70726573696F6EF9
:102570000052697072656E6469207374616D706178
:10258000004F626E6F76656E69207469736B7500BB
:10259000526573756D696E67207072696E7400465E
:1025A0006F72747365747A656E004B6F6E74796EBA
:1025B000756F776163005265616E75646172206941
:1025C0006D707265732E0052697072656E64692059
:1025D0007374616D706100506F6B7261636F7661CF
:1025E0007400526573756D65207072696E74005267
:1025F0006573656E643A2000686F77746F2E707231
:1026000075736133642E637A00686F77746F2E7010
:102610007275736133642E637A00686F77746F2EFE
:10262000707275736133642E636F6D00666F7275BF
:102630006D2E707275736133642E637A00666F72EB
:10264000756D2E707275736133642E637A00666FD8
:1026500072756D2E707275736133642E636F6D00C9
:10266000707275736133642E637A00707275736172
:1026700033642E637A00707275736133642E636FF6
:102680006D00447275636B20706175736965727457
:10269000004472756B207A6174727A796D616E791B
:1026A00000496D70726573696F6E20656E20706190
:1026B000757361005374616D706120696E20706183
:1026C000757361005469736B20706F7A6173746104
:1026D00076656E005072696E742070617573656402
:1026E00000447275636B206162676562726F636834
:1026F000656E004472756B2070727A657277616ED8
:102700007900496D70726573696F6E2063616E63E5
:10271000656C616461005374616D70612061626F0A
:102720007274697461005469736B2070726572759C
:1027300073656E005072696E742061626F727465A9
:1027400064005072696E74657220646973636F6EA1
:102750006E656374656400756E64204B6E6F7066A1
:102760002064727565636B656E004E616369736E9C
:10277000696A2070727A796369736B0050756C7343
:10278000617220656C206D616E646F006520636C02
:10279000696363617265206D616E6F706F6C61005B
:1027A0006120737469736B6E65746520746C61630A
:1027B00069746B6F00616E6420707265737320744E
:1027C0006865206B6E6F6200447565736520566F97
:1027D00072776165726D656E004E6167727A656AC7
:1027E000206479737A65210050726563616C656E4F
:1027F000746172206578747275736F7200507265BF
:102800007269732E207567656C6C6F21005072655C
:1028100064656872656A746520747279736B75217A
:10282000005072656865617420746865206E6F7A07
:102830007A6C652100566F72776165726D656E0006
:1028400047727A616E69650050726563616C656E8E
:102850007461720050726572697363616C646100C7
:10286000507265646568726576005072656865616E
:102870007400506F776572557000426974746520FA
:1028800077617274656E0050726F737A6520637A37
:10289000656B616300506F72204661766F722045F0
:1028A0007370657261720041737065747461005079
:1028B000726F73696D2063656B656A746500506C37
:1028C000656173652077616974002020506C616ECA
:1028D0006E657242756666657242797465733A20F8
:1028E0000050494E4441206572776165726D656E96
:1028F0000047727A616E69652050494E4441004339
:10290000616C656E74616E646F2050494E44410085
:1029100052697363616C642E2050494E4441004EED
:102920006168726976616E692050494E4441005079
:10293000494E44412048656174696E670054656D75
:1029400070657261747572207775726465206E6946
:10295000636874206B616C696272696572740043AC
:102960006965706C6E61206B616C69627261636A2B
:1029700061206E69652062796C612070727A657081
:10298000726F7761647A6F6E61004C612074656D5F
:1029900070657261747572612064652063616C6931
:1029A00062726163696F6E206E6F20686120736967
:1029B000646F20616A75737461646100546172614F
:1029C000747572612064656C6C612074656D7065EE
:1029D000726174757261206E6F6E20616E636F72CA
:1029E00061206573656775697461005469736B6113
:1029F000726E61206E6562796C61207465706C6FB7
:102A0000746E65207A6B616C6962726F76616E615B
:102A10000054656D70657261747572652063616CD8
:102A20006962726174696F6E20686173206E6F7481
:102A3000206265656E2072756E207965740050495C
:102A400044204B616C69622E004B616C2E20504912
:102A5000440043616C2E2050494420202020202037
:102A600020202020200043616C2E2050494400503B
:102A70004944206B616C2E20202020202020202023
:102A80002020005049442063616C2E20202020200B
:102A900020202020202000504944204B616C696296
:102AA0002E20666572746967004B616C2E20504958
:102AB00044207A616B6F6E637A6F6E610043616C64
:102AC0002E20504944207465726D696E6164610006
:102AD00043616C2E2050494420636F6D706C6574A7
:102AE0006100504944206B616C2E20756B6F6E63E2
:102AF000656E61005049442063616C2E2066696EEA
:102B0000697368656400504944204B616C69627266
:102B1000696572756E67004B616C69627261636AA8
:102B200061205049440043616C6962726163696F5E
:102B30006E205049440043616C696272617A696F2A
:102B40006E652050494400504944206B616C6962B5
:102B500072616365005049442063616C696272610F
:102B600074696F6E00447275636B20756E74657264
:102B700062726563682E0050727A657277616320B5
:102B80006472756B0050617573617220696D70724B
:102B90006573696F6E004D6574746920696E20708D
:102BA0006175736100506F7A617374617669742026
:102BB0007469736B005061757365207072696E740F
:102BC000004C6567656E2065696E20426C617474A7
:102BD0002050617069657220756E74657220646939
:102BE00065204475657365207761656872656E64FC
:102BF00020646572204B616C696272696572756EE2
:102C000067206465722065727374656E203420508D
:102C1000756E6B74652E2057656E6E206469652035
:102C200044756573652064617320506170696572D5
:102C30002065696E6B6C656D6D742C2044727563D4
:102C40006B657220736F666F727420617573736346
:102C500068616C74656E00556D69657363206B61A6
:102C600072746B652070617069657275206E612089
:102C7000706F646B6C6164636520692074727A792B
:102C80006D616A20706F64206479737A6120706F5F
:102C900064637A617320706F6D6961727520706909
:102CA000657277737A79636820342070756E6B74FF
:102CB0006F772E204A65736C69206479737A61207E
:102CC0007A616861637A79206F20706170696572DA
:102CD0002C2077796C61637A206472756B61726BFA
:102CE000652E00436F6C6F63617220756E612068A2
:102CF0006F6A6120646520706170656C20736F621B
:102D00007265206C612073757065726669636965B0
:102D100020646520696D70726573696F6E206475DB
:102D200072616E7465206C612063616C69627261AE
:102D300063696F6E206465206C6F73207072696DBB
:102D400065726F7320342070756E746F732E20530C
:102D500069206C6120626F7175696C6C61206D75A2
:102D600065766520656C20706170656C2C206170E3
:102D70006167617220696D707265736F726120693D
:102D80006E6D6564696174616D656E74652E005069
:102D90006F72726520756E20666F676C696F207345
:102DA0006F74746F206C277567656C6C6F20647529
:102DB00072616E7465206C612063616C696272611E
:102DC0007A696F6E6520646569207072696D69202B
:102DD000342070756E74692E20496E206361736FA4
:102DE000206C277567656C6C6F206D756F76612040
:102DF000696C20666F676C696F20737065676E65BC
:102E000072652070726F6E74616D656E7465206C92
:102E100061207374616D70616E74652E00556D690B
:102E20007374657465206C69737420706170697265
:102E300075206E6120706F646C6F7A6B75206120F5
:102E40007564727A756A7465206A656A20706F6449
:102E500020747279736B6F7520626568656D206D83
:102E60006572656E69207072766E696368203420C1
:102E7000626F64752E20506F6B7564207472797365
:102E80006B61207A6163687974692070617069721E
:102E90002C207679706E657465207469736B61722D
:102EA0006E752E00506C61636520612073686565E6
:102EB00074206F6620706170657220756E64657233
:102EC00020746865206E6F7A7A6C6520647572690B
:102ED0006E67207468652063616C696272617469F1
:102EE0006F6E206F66206669727374203420706F75
:102EF000696E74732E20496620746865206E6F7A3F
:102F00007A6C6520636174636865732074686520FA
:102F100070617065722C20706F776572206F6666C5
:102F200020746865207072696E74657220696D6DB9
:102F30006564696174656C792E006F6B004F66661D
:102F4000004B65696E65204265776567756E672E13
:102F50000053696E206D6F76696D69656E746F00E0
:102F60004E657373756E206D6F76696D656E746FE7
:102F70002E004E6F206D6F76652E004B65696E6575
:102F8000205344204B61727465004272616B206B68
:102F900061727479205344004E6F20686179207407
:102FA00061726A657461205344004E657373756E77
:102FB00061205344005A61646E61205344206B6168
:102FC000727461004E6F2053442063617264004448
:102FD00075657365004479737A6100426F71756934
:102FE0006C6C61005567656C6C6F00547279736B23
:102FF00061004E6F7A7A6C650046696C2E206E69AE
:103000006368742067656C6164656E004272616B11
:103010002066696C616D656E74750046696C2E2062
:103020006E6F20696E74726F64756369646F0046B9
:10303000696C2E206E6F6E20636172696361746FBC
:103040000046696C616D656E74206E657A617665A7
:1030500064656E0046696C616D656E74206E6F7498
:10306000206C6F6164656400466172626520756EF4
:103070006B6C6172004B6F6C6F72207A616E696568
:10308000637A79737A2E00436F6C6F72206E6F20B3
:10309000686F6D6F67656E656F00436F6C6F72650B
:1030A000206E6F6E207075726F00426172766120C3
:1030B0006E656E6920636973746100436F6C6F7233
:1030C000206E6F7420636C656172004E65696E00DE
:1030D0004E6965004E65004E6F004269747465204C
:1030E000616B7475616C6973696572656E2E0050F1
:1030F000726F737A65207A616B7475616C697A6F2F
:103100007761630041637475616C697A61722070E4
:103110006F72206661766F72005072656761206120
:103120006767696F726E612E0050726F73696D20F0
:10313000616B7475616C697A756A74652E00506C88
:103140006561736520757067726164652E004E65F8
:103150007565204669726D77617265205665727378
:10316000696F6E20766572667565676261723A0096
:103170005779737A6C61206E6F776120776572730F
:103180006A61206669726D776172653A004E756595
:10319000766F206669726D776172652064697370FD
:1031A0006F6E69626C653A004E756F766120766568
:1031B0007273696F6E652064656C206669726D77E5
:1031C00061726520646973706F6E6962696C650015
:1031D0005679736C61206E6F7661207665727A65C0
:1031E000206669726D776172653A004E6577206678
:1031F00069726D776172652076657273696F6E2092
:10320000617661696C61626C653A004265776567F9
:1032100065205A0050727A6573756E6163205A009A
:103220004D6F766572205A004D756F7669205A0091
:10323000506F73756E6F7574205A004D6F766520F0
:103240005A0042657765676520590050727A657348
:10325000756E61632059004D6F7665722059004D7F
:10326000756F7669205900506F73756E6F75742095
:1032700059004D6F76652059004265776567652076
:10328000580050727A6573756E61632058004D6FF7
:103290007665722058004D756F7669205800506F22
:1032A00073756E6F75742058004D6F7665205800E9
:1032B00045787472756972004D756F766920457333
:1032C000747275736F726500457874727564657297
:1032D000004B616C696272696572656E20766F6E13
:1032E000205A2E2044726568656E205369652064FB
:1032F000656E204B6E6F7066206269732064657224
:10330000206F6265726520416E7363686C6167202F
:10331000657272656963687420776972642E204BE8
:103320006C69636B656E2077656E6E2067616E7A7F
:10333000206F62656E2E004B616C69627261636A18
:1033400061205A2E2050727A656B72656320676126
:103350006C6B652C206162792070727A6573756E72
:103360006163206F73205A20646F20676F726E79DB
:103370006368206B72616E636F77656B2E204E61A0
:103380006369736E696A2C20627920706F74776943
:103390006572647A69632E0043616C696272616E62
:1033A000646F205A2E204769726120656C20626F1D
:1033B000746F6E207061726120737562697220652E
:1033C0006C20636172726F205A206861737461208F
:1033D000676F6C7065207069657A617320737570B2
:1033E0006572696F7261732E2044657370756573C1
:1033F0002068617A20636C69632E0043616C6962A6
:1034000072617A696F6E65205A2E2052756F7461F1
:103410007265206C61206D616E6F706F6C612070E1
:10342000657220616C7A61726520696C20636172DB
:1034300072656C6C6F205A2066696E6F20616C6CCF
:1034400027616C74657A7A61206D617373696D614F
:103450002E20436C69636B20706572207465726DF9
:10346000696E6172652E004B616C696272616365A1
:10347000205A2E204F746163656E696D20746C61F3
:103480006369746B6120706F73756E7465205A2068
:103490006F737520617A206B7E686F726E696D75CF
:1034A00020646F72617A752E20506F747672647426
:1034B0006520746C616369746B656D2E0043616C8B
:1034C0006962726174696E67205A2E20526F74614E
:1034D000746520746865206B6E6F6220746F206D58
:1034E0006F766520746865205A2063617272696125
:1034F000676520757020746F2074686520656E6440
:103500002073746F70706572732E20436C69636BE7
:10351000207768656E20646F6E652E004B616C6964
:103520006272696572656E20766F6E2058595A2EE8
:103530002044726568656E205369652064656E205D
:103540004B6E6F70662062697320646572206F62D3
:1035500065726520416E7363686C61672065727285
:10356000656963687420776972642E204B6C6963A7
:103570006B656E2077656E6E2067616E7A206F6274
:10358000656E2E004B616C69627261636A612058DE
:10359000595A2E2050727A656B7265632067616C90
:1035A0006B652C206162792070727A6573756E612B
:1035B00063206F73205A20646F20676F726E796387
:1035C00068206B72616E636F77656B2E204E61634E
:1035D00069736E696A2C20627920706F74776965EF
:1035E00072647A69632E0043616C696272616E6411
:1035F0006F2058595A2E204769726120656C2062ED
:103600006F746F6E207061726120737562697220D1
:10361000656C20636172726F205A206861737461F7
:1036200020676F6C7065207069657A6173207375AF
:10363000706572696F7261732E2044657370756571
:10364000732068617A20636C69632E0043616C6942
:103650006272617A696F6E652058595A2E205275D0
:103660006F74617265206C61206D616E6F706F6C3C
:10367000612070657220616C7A61726520696C20CE
:1036800063617272656C6C6F205A2066696E6F2080
:10369000616C6C27616C74657A7A61206D617373FB
:1036A000696D612E20436C69636B207065722074B4
:1036B00065726D696E6172652E004B616C69627234
:1036C0006163652058595A2E204F746163656E6995
:1036D0006D20746C616369746B6120706F73756EBB
:1036E0007465205A206F737520617A206B7E686F35
:1036F000726E696D7520646F72617A752E20506FDD
:1037000074767264746520746C616369746B656D42
:103710002E0043616C6962726174696E672058594A
:103720005A2E20526F7461746520746865206B6E28
:103730006F6220746F206D6F766520746865205A03
:1037400020636172726961676520757020746F20F3
:1037500074686520656E642073746F707065727331
:103760002E20436C69636B207768656E20646F6EF2
:10377000652E00416368736265776567756E6700E3
:1037800052756368206F7369004D6F7665722065AE
:103790006A6573004D756F766920617373650050BB
:1037A0006F73756E6F7574206F7375004D6F7665EE
:1037B0002061786973004D657368206C6976656C6B
:1037C0002E206C6574746F004D65736820426564CB
:1037D000204C6576656C696E67004B616C6962723E
:1037E000696572756E67004B616C69627261636ACC
:1037F000610043616C6962726163696F6E0043616D
:103800006C696272617A696F6E65004B616C6962A6
:10381000726163650043616C6962726174696F6EA5
:103820000020766F6E203900207A203900206465F0
:10383000203900207375203900207A203900206F4C
:10384000662039004D657373656E20646572205281
:1038500065666572656E7A686F6568652064657314
:10386000204B616C69627269657270756E6B74650C
:1038700073004F6B7265736C616D207779736F6B3A
:103880006F7363206F646E69657369656E6961202B
:1038900070756E6B7475206B616C696272616379AF
:1038A0006A6E65676F004D65646972206C612061A6
:1038B0006C747572612064656C2070756E746F2015
:1038C0006465206C612063616C6962726163696F19
:1038D0006E004D69737572617265206C27616C743E
:1038E000657A7A61206469207269666572696D65BE
:1038F0006E746F2064656C2070756E746F206469DF
:103900002063616C696272617A696F6E65004D65F2
:1039100072696D207265666572656E636E69207688
:1039200079736B75206B616C69627261636E696833
:103930006F20626F6475004D6561737572696E67A3
:10394000207265666572656E636520686569676883
:1039500074206F662063616C6962726174696F6E56
:1039600020706F696E740048617570746D656E7556
:1039700065004D656E7520676C6F776E65004D65EF
:103980006E75207072696E636970616C004D656E52
:1039900075207072696E636970616C6500486C6156
:1039A000766E69206E616269646B61004D61696E5B
:1039B000004D32323120496E76616C696420657841
:1039C00074727564657220004D32313820496E760C
:1039D000616C696420657874727564657220004D4D
:1039E00032303020496E76616C696420657874727B
:1039F0007564657220005265706F7274696E67201D
:103A0000656E6473746F70207374617475730046AF
:103A100049524D574152455F4E414D453A4D6172B5
:103A20006C696E2056312E302E323B2053707269F5
:103A30006E7465722F6772626C206D617368757049
:103A400020666F722067656E36204649524D574199
:103A500052455F55524C3A68747470733A2F2F6711
:103A600069746875622E636F6D2F70727573613340
:103A7000642F50727573612D69332D506C75732FDF
:103A80002050524F544F434F4C5F56455253494F6D
:103A90004E3A312E30204D414348494E455F5459EE
:103AA00050453A5072757361206933204D4B322076
:103AB00045585452554445525F434F554E543A3140
:103AC00020555549443A30303030303030302D3088
:103AD0003030302D303030302D303030302D3030EF
:103AE000303030303030303030300A004D31303905
:103AF00020496E76616C69642065787472756465BE
:103B00007220004D31303520496E76616C69642039
:103B1000657874727564657220004D3130342049C7
:103B20006E76616C69642065787472756465722064
:103B3000004C6F7365205269656D656E73636865CF
:103B4000696265004B6F6C6F207061736F77650001
:103B5000506F6C6561207375656C74610050756C95
:103B60006567676961206C656E74610055766F6C7E
:103B70006E656E612072656D656E69636B61004C88
:103B80006F6F73652070756C6C65790046696C6148
:103B90006D656E74206C6164656E005770726F772E
:103BA00061647A2066696C616D656E7400496E743B
:103BB000726F64756369722066696C616D2E004373
:103BC00061726963612066696C616D656E746F0016
:103BD0005A61766573742066696C616D656E7400F8
:103BE0004C6F61642066696C616D656E7400466936
:103BF0006C616D656E74206C6561647400577072E1
:103C00006F772E2066696C616D656E747500496E04
:103C100074726F64756369656E646F2066696C6148
:103C20006D2E004361726963616E646F2066696C1A
:103C3000616D2E005A61766164656E692066696CFB
:103C4000616D656E7475004C6F6164696E672066A6
:103C5000696C616D656E74004C61646520466172CB
:103C6000626500437A79737A637A2E206B6F6C6F8A
:103C700072750043616D6269616E646F20636F6C81
:103C80006F72004361726963616E646F20636F6C71
:103C90006F72650043697374656E69206261727644
:103CA00079004C6F6164696E6720636F6C6F72009E
:103CB000576165686C652053707261636865005771
:103CC00079626F72206A657A796B610043616D6217
:103CD00069616520656C206964696F6D6100536579
:103CE0006C657A696F6E61206C696E6775610056EC
:103CF00079626572206A617A796B610053656C65DF
:103D00006374206C616E67756167650044657574E6
:103D100073636800506F6C736B6900457370616EFC
:103D20006F6C004974616C69616E6F0043657374F8
:103D3000696E6100456E676C697368004142474572
:103D400042524F4348454E2E20005041524144417B
:103D500020444520454D455247454E434941004981
:103D60004E2054494C542E004B494C4C45442E2077
:103D700000496E76616C696420657874727564655B
:103D8000720046696C616D656E742065696E6C6564
:103D900067656E005770726F7761647A2066696C30
:103DA000616D656E7400496E74726F6475636972DB
:103DB0002066696C616D656E746F00496E73657223
:103DC0006972652066696C616D656E746F00566C12
:103DD0006F7A74652066696C616D656E7400496EFA
:103DE000736572742066696C616D656E740020760F
:103DF0006F6E203900207A20390020646520390058
:103E0000207375203900207A203900206F66203910
:103E100000566572626573736572756E67204265E0
:103E200064204B616C69627269657270756E6B7447
:103E300000506F7072617769616D2070726563798F
:103E40007A796A6E6F73632070756E6B7475206B10
:103E5000616C6962726163796A6E65676F004D6556
:103E60006A6F72616E646F2063616D612070756E40
:103E7000746F2064652063616C6962726163696F4D
:103E80006E0050657266657A696F6E2E20696C20CF
:103E90006C6574746F2070756E746F206469206334
:103EA000616C696272617A2E005A6C657073756A12
:103EB0006920707265736E6F7374206B616C6962D8
:103EC0007261636E69686F20626F647500496D701E
:103ED000726F76696E67206265642063616C6962E7
:103EE000726174696F6E20706F696E74004B616CE3
:103EF00069627269657265205A004B616C69627211
:103F0000756A65205A0043616C696272616E646F04
:103F1000205A0043616C696272616E646F205A00BE
:103F20004B616C696272756A69205A0043616C6901
:103F300062726174696E67205A004B616C696272CB
:103F4000696572756E67204F4B004B616C696272D8
:103F500061636A61204F4B0043616C696272616307
:103F6000696F6E204F4B0043616C696272617A69C0
:103F70006F6E65204F4B004B616C696272616365C7
:103F8000204F4B0043616C6962726174696F6E20EF
:103F9000646F6E65004B616C696272696572656E13
:103FA000205A004B616C696272756A205A00436145
:103FB0006C6962726172205A0043616C696272615D
:103FC000205A004B616C6962726F766174205A00EE
:103FD00043616C696272617465205A00417566774D
:103FE0006165726D656E204F4B0047727A616E6934
:103FF00065204F4B2E0043616C656E74616D696581
:104000006E746F2066696E616C2E00526973636115
:104010006C642E20636F6D706C65746F005A6168FC
:10402000726976616E69204F4B2E00486561746934
:104030006E6720646F6E652E0041756677616572EC
:104040006D656E0047727A616E69652E2E2E004393
:10405000616C656E74616E646F2E2E2E00526973F2
:1040600063616C64616D656E746F2E2E2E005A61F3
:1040700068726976616E690048656174696E67008F
:104080002046726565204D656D6F72793A20004457
:10409000657220447275636B657220777572646512
:1040A000206E6F6368206E69636874206B616C6951
:1040B0006272696572742E20426974746520666F3D
:1040C0006C67656E205369652064656D2048616E7C
:1040D00064627563682C204B61706974656C20465E
:1040E000697273742073746570732C2041627363FA
:1040F000686E6974742043616C6962726174696F7F
:104100006E20666C6F772E004472756B61726B6106
:10411000206E6965207A6F7374616C61206A6573C3
:104120007A637A6520736B616C6962726F77616E16
:10413000612E2050726F737A65206B6965726F779C
:1041400061632073696520696E737472756B636A4D
:10415000612C20726F7A647A69616C205A61637A8B
:10416000796E616D792C20706F64726F7A647A69F0
:10417000616C2053656C66746573742E00496D70B4
:104180007265736F7261206E6F2065737461206356
:10419000616C69627261646120746F6461766961E7
:1041A0002E20506F72206661766F72207573617277
:1041B00020656C206D616E75616C2C20656C2063D0
:1041C00061706974756C6F204669727374207374C2
:1041D0006570732C2073656C656363696F6E204333
:1041E000616C6962726174696F6E20666C6F772EA4
:1041F000005374616D70616E746520616E636F72DF
:1042000061206E6F6E2063616C6962726174612EF1
:104210002053692070726567612064692073656747
:104220007569726520696C206D616E75616C652CB5
:104230002063617069746F6C6F205052494D492042
:1042400050415353492C2073657A696F6E65206421
:10425000656C6C612063616C696272617A696F6E12
:10426000652E005469736B61726E61206E656279B0
:104270006C61206A65737465207A6B616C69627227
:104280006F76616E612E20506F73747570756A74ED
:10429000652070726F73696D20706F646C65206D3E
:1042A000616E75616C752C206B617069746F6C61E7
:1042B000205A6163696E616D652C206F647374614F
:1042C00076656320506F73747570206B616C6962E2
:1042D000726163652E005072696E74657220686148
:1042E00073206E6F74206265656E2063616C696215
:1042F0007261746564207965742E20506C656173F9
:104300006520666F6C6C6F7720746865206D616ED8
:1043100075616C2C206368617074657220466972E7
:1043200073742073746570732C2073656374696F84
:104330006E2043616C6962726174696F6E20666C95
:104340006F772E004475726368666C7573730050E6
:10435000727A65706C797700466C756A6F00466C8E
:104360007573736F00507275746F6B00466C6F7766
:10437000004265776567756E67206265656E646586
:104380006E004B6F6E637A656E6965206472756B43
:1043900075005465726D2E206D6F76696D69656E5E
:1043A000746F73004172726573746F20696E20635D
:1043B0006F72736F00446F6B6F6E636F76616E69BF
:1043C00020706F687962750046696E697368696EFE
:1043D00067206D6F76656D656E74730020766F6E05
:1043E000203400207A2034002064652034002073BB
:1043F00075203400207A203400206F66203400536A
:10440000756368656E20426564204B616C696272F9
:1044100069657270756E6B7400537A756B616D208F
:1044200070756E6B7475206B616C69627261637913
:104430006A6E65676F20706F646B6C61646B690096
:1044400042757363616E646F2063616D6120707586
:104450006E746F2064652063616C69627261636968
:104460006F6E00526963657263612064656C206CD5
:104470006574746F2070756E746F20646920636159
:104480006C696272617A2E00486C6564616D206BA4
:10449000616C69627261636E6920626F6420706F23
:1044A000646C6F7A6B7900536561726368696E67DB
:1044B000206265642063616C6962726174696F6E09
:1044C00020706F696E74004974657261636A61205F
:1044D000005265697465726163696F6E2000526590
:1044E00069746572617A696F6E65200049746572DE
:1044F0006163652000497465726174696F6E2000A4
:10450000446F6E6520736176696E672066696C65BD
:104510002E00446F6E65207072696E74696E67203C
:1045200066696C6500497374204661726265207229
:1045300065696E3F00437A79206B6F6C6F72206AF9
:1045400065737420637A797374793F0045732065CD
:104550006C206E7565766F20636F6C6F72206E696C
:104560007469646F3F00496C20636F6C6F726520E3
:104570006527206E697469646F3F004A6520626137
:104580007276612063697374613F00497320636FC1
:104590006C6F7220636C6561723F0046696C616D7F
:1045A000656E742D5765636873656C0057796D6926
:1045B000656E69632066696C616D656E7400436148
:1045C0006D626961722066696C616D656E746F0001
:1045D00043616D622E2066696C616D656E746F005B
:1045E00056796D656E69742066696C616D656E746F
:1045F000004368616E67652066696C616D656E7405
:10460000004C7565667465722D54656D706F005051
:104610007265646B6F73632077656E742E005665E8
:104620006C6F63696461642056656E742E00566514
:104630006C6F636974612076656E742E00527963C5
:10464000686C6F73742076656E742E0046616E2000
:10465000737065656400656E717565696E672022AB
:10466000002045787465726E616C205265736574C4
:10467000005072696E7465722073746F7070656437
:104680002064756520746F206572726F72732E20BE
:1046900046697820746865206572726F7220616E59
:1046A0006420757365204D39393920746F20726527
:1046B00073746172742E202854656D706572617414
:1046C0007572652069732072657365742E20536559
:1046D00074206974206166746572207265737461F8
:1046E0007274696E6729004E6F204C696E65204EAA
:1046F000756D626572207769746820636865636BA5
:1047000073756D2C204C617374204C696E653A2072
:10471000004E6F20436865636B73756D2077697415
:1047200068206C696E65206E756D6265722C204C18
:10473000617374204C696E653A200020746F6F209D
:104740006C6F6E6720657874727573696F6E207018
:10475000726576656E746564004C696E65204E7591
:104760006D626572206973206E6F74204C61737482
:10477000204C696E65204E756D6265722B312C2060
:104780004C617374204C696E653A20005072696EFA
:104790007465722068616C7465642E206B696C6C42
:1047A00028292063616C6C6564210020636F6C6450
:1047B00020657874727573696F6E207072657665A6
:1047C0006E74656400636865636B73756D206D69F5
:1047D000736D617463682C204C617374204C696E36
:1047E000653A20004645484C45523A00424C414407
:1047F0003A004552524F52453A0043485942413AD5
:10480000004552524F523A00456E642066696C650D
:10481000206C697374006F70656E0054524947478D
:104820004552454400656E6473746F707320686907
:10483000743A200045696E656E204D6F6D656E742B
:104840002062697474652E00456E20657370657210
:104850006100536F7370656E73696F6E652E2E2ED7
:1048600000536C6565702E2E2E004D6F746F72654F
:104870006E206175730057796C61637A7963207378
:10488000696C6E696B6900417061676172206D6F60
:10489000746F726573004469736162696C69742036
:1048A0006D6F746F7269005679706E6F7574206DDC
:1048B0006F746F72790044697361626C6520737400
:1048C0006570706572730020436F756E7420583A7E
:1048D00020005765636873656C206F6B3F005779E4
:1048E0006D69616E61206F6B3F0043616D6269614C
:1048F000646F20636F72726563742E3F0043616D55
:10490000626961746F20636F72722E3F0056796D19
:10491000656E61206F6B3F004368616E6765642060
:10492000636F72726563746C793F0041626B756589
:10493000686C656E00577963686C6F647A696300B0
:10494000456E667269617200526166667265646482
:1049500061005A63686C6164697400436F6F6C64D2
:104960006F776E00426974746520656E7466657257
:104970006E656E2053696520756562657273746536
:1049800068656E6465732046696C616D656E742040
:10499000766F6E206465722044756573652E204BBA
:1049A0006C69636B656E2077656E6E2073617562EE
:1049B00065722E00446C61207072617769646C2EA0
:1049C000206B616C69627261636A692070726F73D7
:1049D0007A65206F637A7973636963206479737A87
:1049E000652E20506F74772E2067757A696B696524
:1049F0006D2E004C696D7069617220626F7175690E
:104A00006C6C6120706172612063616C69627261BB
:104A100063696F6E2E20436C69636B206375616EF2
:104A2000646F206163616265732E0050756C6972FA
:104A300065206C277567656C6C6F20706572206CE3
:104A4000612063616C696272617A696F6E652C20A6
:104A5000706F69206661726520636C69636B2E00FC
:104A600050726F2075737065736E6F75206B616C1B
:104A7000696272616369206F63697374657465202C
:104A800070726F73696D207469736B6F766F7520C8
:104A9000747279736B752E20506F747672647465BE
:104AA00020746C616369746B656D2E00506C656178
:104AB000736520636C65616E20746865206E6F7A23
:104AC0007A6C6520666F722063616C6962726174D2
:104AD000696F6E2E20436C69636B207768656E206A
:104AE000646F6E652E004973742064657220536391
:104AF000686C697474656E2067616E7A206F626598
:104B00006E3F004F626120776F7A6B6920646F6A35
:104B1000656368616C7920646F20676F726E656A87
:104B20002072616D793F00436172726F73205A2069
:104B3000697A712E2F6465722E20657374616E2000
:104B4000617272696261206D6178696D6F3F0049C1
:104B50002063617272656C6C69205A2073696E2FD4
:104B600064657320736F6E6F20616C74657A7A610F
:104B7000206D61783F00446F6A656C79206F6261D7
:104B8000205A20766F7A696B79206B7E686F726E1F
:104B9000696D7520646F72617A753F00417265209E
:104BA0006C65667420616E64207269676874205A4F
:104BB0007E63617272696167657320616C6C2075D8
:104BC000703F00204C61737420557064617465649B
:104BD0003A20005765636873656C206572666F6C78
:104BE00067722E210057796D69616E61206F6B21AC
:104BF0000043616D62696F20636F72726563746FE9
:104C00000043616D62696F20726975736369746FC7
:104C100021005A6D656E612075737065736E612138
:104C2000004368616E676520737563636573732104
:104C300000447275636B656E20766F6E205344007E
:104C40004472756B207A205344004D656E75207454
:104C500061726A657461205344005374616D7061C0
:104C6000206461205344005469736B207A205344BC
:104C7000005072696E742066726F6D205344005448
:104C8000656D702E206B616C696272696572656E0C
:104C900000436965706C6E61206B616C6962722E95
:104CA0000043616C6962726163696F6E2074656D47
:104CB000702E0054617261747572612074656D703C
:104CC0002E005465706C6F742E206B616C6962727B
:104CD0006163650054656D702E2063616C6962725A
:104CE0006174696F6E004B616C69627269657265AF
:104CF0006E00536B616C6962726F77616300436130
:104D00006C69627261720043616C696272617265A2
:104D1000005A6B616C6962726F7661740043616CFA
:104D20006962726174650052657365742058595ADE
:104D3000204B616C6962722E005265736574206B42
:104D4000616C6962722E2058595A005265736574FD
:104D50002058595A206B616C6962722E005265733B
:104D600065742058595A2063616C6962722E004B39
:104D7000616C696272696572756E672058595A0074
:104D80004B616C69627261636A612058595A0043D1
:104D9000616C696272612058595A0043616C6962A2
:104DA00072612058595A004B616C69627261636587
:104DB0002058595A0043616C6962726174652058C9
:104DC000595A002042726F776E206F7574205265B9
:104DD00073657400426567696E2066696C65206C56
:104DE0006973740058595A2D4B616C696272696518
:104DF00072756E6720756E67656E61752E204C69E1
:104E00006E6B657220766F726465726572204B619D
:104E10006C69627269657270756E6B742069737407
:104E2000207A75207765697420766F726E652E0022
:104E30004B616C69627261636A612058595A206ED5
:104E40006965646F6B6C61646E612E204C65777967
:104E50002070727A65646E692070756E6B74207A4A
:104E600062797420777973756E6965747920646FDF
:104E70002070727A6F64752E0043616C6962726192
:104E80007A696F6E2058595A20636F6D70726F6D1A
:104E900065746964612E2050756E746F2064656C52
:104EA000616E7465726F20697A7175696572646F7D
:104EB000206E6F20616C63616E7A61626C652E009A
:104EC00043616C696272617A696F6E652058595AE4
:104ED00020636F6D70726F6D657373612E205075F6
:104EE0006E746F20616E746572696F72652073698C
:104EF0006E697374726F206E6F6E2072616767697E
:104F0000756E676962696C652E004B616C696272CF
:104F10006163652058595A206E65707265736E61C1
:104F20002E204C65767920707265646E6920626F00
:104F300064206D6F63207670726564752E00585919
:104F40005A2063616C6962726174696F6E20636F6D
:104F50006D70726F6D697365642E204C6566742088
:104F600066726F6E742063616C6962726174696FDE
:104F70006E20706F696E74206E6F7420726561634D
:104F80006861626C652E0058595A2D4B616C6962DC
:104F900072696572756E6720756E67656E61752ED4
:104FA00020566F7264657265204B616C696272692C
:104FB000657270756E6B74652073696E64207A75A6
:104FC000207765697420766F726E652E004B616C78
:104FD0006962722E2058595A206E6965646F6B6C35
:104FE00061646E612E2050727A65646E696520700E
:104FF000756E6B7479206B616C6962722E205A62D7
:105000007974207779732E20646F2070727A6F64C0
:10501000752E0043616C696272617A696F6E205807
:10502000595A20636F6D70726F6D65746964612E7B
:105030002050756E746F2064656C616E7465726F5C
:1050400073206E6F20616C63616E7A61626C657350
:105050002E0043616C696272617A696F6E652058D7
:10506000595A20636F6D70726F6D657373612E2076
:1050700050756E746920616E746572696F72692013
:105080006E6F6E207261676769756E676962696CC1
:10509000692E004B616C6962726163652058595AD0
:1050A000206E65707265736E612E20507265646E3D
:1050B00069206B616C69627261636E6920626F6402
:1050C00079206D6F63207670726564752E00585973
:1050D0005A2063616C6962726174696F6E20636FDC
:1050E0006D70726F6D697365642E2046726F6E7499
:1050F0002063616C6962726174696F6E20706F69A0
:105100006E7473206E6F7420726561636861626C87
:10511000652E0058595A204B616C6962726965723C
:10512000756E6720696E204F72646E756E672E20F3
:10513000582F592041636873656E2073696E64202F
:105140006574776173207363686965662E004B61CF
:105150006C69627261636A612058595A2070726189
:105160007769646C6F77612E204F73696520582FC3
:1051700059206C656B6B6F20736B6F736E652E209F
:10518000446F62726120726F626F746121004361CB
:105190006C6962726163696F6E2058595A20636F3F
:1051A0007272656374612E204C6F7320656A65733B
:1051B0002058202F205920657374616E206C696718
:1051C0006572616D656E746520696E636C696E6190
:1051D000646F732E204275656E2074726162616A1D
:1051E0006F210043616C696272617A696F6E205849
:1051F000595A20636F7272657474612E2041737303
:105200006920582F59206C65676765726D656E74EB
:10521000652073746F7274692E2042656E2066611A
:1052200074746F21004B616C696272616365205810
:10523000595A207620706F7261646B752E20582F3A
:1052400059206F7379206D69726E65207A6B6F7368
:10525000656E652E20446F627261207072616365B5
:10526000210058595A2063616C6962726174696FD8
:105270006E20616C6C2072696768742E20582F59FB
:1052800020617865732061726520736C696768744A
:105290006C7920736B657765642E20476F6F64208F
:1052A0006A6F62210058595A204B616C69627269B9
:1052B0006572756E6720696E204F72646E756E67D9
:1052C0002E20536368696566686569742077697222
:1052D00064206175746F6D617469736368206B6FAE
:1052E00072726967696572742E004B616C696272D3
:1052F00061636A612058595A207072617769646CE1
:105300006F77612E20536B6F737920626564612023
:105310006175746F6D617479637A6E6965207779F0
:10532000726F776E616E652070727A792064727523
:105330006B752E0043616C6962726163696F6E20E8
:1053400058595A20636F7272656374612E204C61E4
:1053500020696E636C696E6163696F6E207365208E
:10536000636F72726567697261206175746F6D61D8
:10537000746963616D656E74652E0043616C69626A
:1053800072617A696F6E2058595A20636F72726524
:105390007474612E204C6120646973746F72736938
:1053A0006F6E6520766572726127206175746F6D0E
:1053B00061746963616D656E746520636F6D70659E
:1053C0006E736174612E004B616C6962726163651A
:1053D0002058595A207620706F7261646B752E20A8
:1053E0005A6B6F73656E69206275646520617574B0
:1053F0006F6D617469636B79207679726F766E6117
:105400006E6F20707269207469736B752E00585925
:105410005A2063616C6962726174696F6E20616C9D
:105420006C2072696768742E20536B6577207769EA
:105430006C6C20626520636F7272656374656420B2
:105440006175746F6D61746963616C6C792E00585D
:10545000595A2D4B616C696272696572756E67206D
:105460006665686C67657363686C6167656E2E203E
:105470004265642D4B616C69627269657270756E0C
:105480006B74206E6963687420676566756E646509
:105490006E2E004B616C6962722E2058595A206E34
:1054A00069657564616E612E204B616C6962726121
:1054B00063796A6E792070756E6B7420706F646B9F
:1054C0006C61646B69206E69657A6E616C657A697E
:1054D0006F6E792E0043616C6962726163696F6EF1
:1054E0002058595A2066616C6C6164612E20507599
:1054F0006E746F732064652063616C6962726163AE
:10550000696F6E20656E206C612063616D61206E35
:105510006F20656E636F6E747261646F732E0043EB
:10552000616C696272617A696F6E652058595A20A0
:1055300066616C6C6974612E20496C2070756E74A4
:105540006F2064692063616C696272617A696F6E51
:10555000652073756C206C6574746F206E6F6E209F
:10556000652720737461746F2074726F7661746F35
:105570002E004B616C6962726163652058595A2034
:1055800073656C68616C612E204B616C696272613D
:10559000636E6920626F6420706F646C6F7A6B79E0
:1055A000206E656E616C657A656E2E0058595A20C2
:1055B00063616C6962726174696F6E206661696CA7
:1055C00065642E204265642063616C696272617457
:1055D000696F6E20706F696E7420776173206E6FD3
:1055E0007420666F756E642E0058595A2D4B616C8D
:1055F000696272696572756E67206F6B2E20582F15
:10560000592D41636873656E2073696E64207365FC
:105610006E6B7265636874207A7565696E616E641D
:1056200065722E20476C7565636B77756E73636862
:1056300021004B616C69627261636A612058595A3A
:10564000206F6B2E204F73696520582F592073618E
:105650002070726F73746F7061646C652E20477276
:105660006174756C61636A65210043616C69627283
:105670006163696F6E2058595A206F6B2E20456AFE
:10568000657320582F592070657270656E64696368
:10569000756C617265732E2046656C69636974610F
:1056A00063696F6E6573210043616C696272617A30
:1056B000696F6E652058595A204F4B2E20476C69F0
:1056C000206173736920582F5920736F6E6F20709B
:1056D000657270656E6469636F6C6172692E2043D8
:1056E0006F6D706C696D656E746921004B616C69DA
:1056F00062726163652058595A207620706F72611A
:10570000646B752E20582F59206F7379206A736F40
:1057100075206B6F6C6D652E2047726174756C75AA
:105720006A69210058595A2063616C696272617418
:10573000696F6E206F6B2E20582F5920617865732A
:10574000206172652070657270656E646963756C46
:1057500061722E20436F6E67726174756C6174693B
:105760006F6E73210058595A2D4B616C69627269D2
:105770006572756E67206665686C67657363686CD3
:105780006167656E2E204269747465207363686179
:1057900075656E2053696520696E206461732048C9
:1057A000616E64627563682E004B616C6962726140
:1057B000636A612058595A206E6965706F77696510
:1057C000647A696F6E612E205370726177647A69B2
:1057D00063207720696E737472756B636A692E003B
:1057E00043616C6962726163696F6E2058595A2017
:1057F00066616C6C6164612E20436F6E73756C74AE
:10580000617220656C206D616E75616C20706F72C5
:10581000206661766F722E0043616C696272617AF4
:10582000696F6E652058595A2066616C6C697461A5
:105830002E20536920707265676120646920636F50
:105840006E73756C7461726520696C206D616E7524
:10585000616C652E004B616C6962726163652058F2
:10586000595A2073656C68616C612E204E61686CBA
:1058700065646E65746520646F206D616E75616C22
:10588000752E0058595A2063616C6962726174699F
:105890006F6E206661696C65642E20506C65617363
:1058A0006520636F6E73756C7420746865206D611C
:1058B0006E75616C2E0058595A2D4B616C6962727D
:1058C000696572756E67206665686C676573636885
:1058D0006C6167656E2E204C696E6B657220766F09
:1058E000726465726572204B616C6962726965727F
:1058F00070756E6B7420697374207A752077656992
:105900007420766F726E652E004B616C6962722E28
:105910002058595A206E69657564616E612E204C5D
:105920006577792070727A65646E692070756E6B28
:1059300074207A62797420646F2070727A6F647553
:105940002E205779726F776E6163206472756B6178
:10595000726B652E0043616C6962726163696F6E80
:105960002058595A2066616C6C61642E2050756E07
:10597000746F2064656C616E7465726F20697A71F2
:1059800075696572646F206E6F20616C63616E7AF9
:1059900061626C652E0043616C696272617A696F45
:1059A0006E652058595A2066616C6C6974612E20AE
:1059B00050756E746F20616E746572696F726520C8
:1059C00073696E697374726F206E6F6E2072616797
:1059D0006769756E676962696C652E004B616C69F9
:1059E00062726163652058595A2073656C68616CF6
:1059F000612E204C65767920707265646E69206234
:105A00006F64206D6F63207670726564752E20530D
:105A1000726F766E656A7465207469736B61726EFD
:105A2000752E0058595A2063616C696272617469FD
:105A30006F6E206661696C65642E204C656674200B
:105A400066726F6E742063616C6962726174696FF3
:105A50006E20706F696E74206E6F74207265616362
:105A60006861626C652E0058595A2D4B616C6962F1
:105A700072696572756E67206665686C67657363C9
:105A8000686C6167656E2E20566F72646572652062
:105A90004B616C69627269657270756E6B746520BA
:105AA00073696E64207A75207765697420766F72E9
:105AB0006E652E004B616C6962722E2058595A2017
:105AC0006E69657564616E612E2050727A65642E10
:105AD0002070756E6B7479206B616C6962722E2018
